:020000020000FC
:02000000FFC639
:02000800D9C05D
:06000E003BC473C46DC485
:0400160019C104C345
:10004000FF24E5D022240FEFC02EAA240091F00057
:1000500003BB0091F50004BB0091F1000F71602E0D
:100060000091F20005BBAA9BAB9801E0402E00EA8C
:10007000502E479A00E205BF00E20BBF0FEF00BD14
:1000800013E007EE1BBD0ABD13E004E819BD08BD6F
:100090000AE00EBD00E609BF662029F00CE009B9B0
:1000A00006E003B93CD49091C800992379F0CFD4ED
:1000B00060EC72D301E003BDFDBCFCBC0FEF08BFD8
:1000C00008B706FFFDCF08BF0197D1F763E064D3FF
:1000D000A0E6B0E088E6FD928A95E9F74427552727
:1000E00099247727E0E6F0E02ED101E0028702E0D4
:1000F000058B04E000AB08E001AB00E402AB01E0DB
:1001000003ABF49620D104E0028708E0058B00E100
:1001100000AB00E201AB00E802AB02E003AB789475
:100120008895442329F1E0E6F0E040FF02C04E7FCD
:1001300097D041FF02C04D7F95D03B9647FF02C04C
:100140004F778ED046FF02C04F7B8CD0B99644FFCC
:1001500002C04F7E85D045FF02C04F7D83D03B96C5
:1001600043FF02C0477F7CD042FF02C04B7F7AD062
:100170005523B1F254FF02C05F7EE8D3E0E6F0E021
:100180000689002359F450FF02C05E7FE5D006893E
:10019000002321F451FF02C05D7F0CD1F496068943
:1001A000002359F452FF02C05B7FD6D0068900239A
:1001B00021F453FFB5CF577FFDD0B2CFEF92EFB60A
:1001C0007894EF93FF93637CE7D2E0E6F0E0A5D06C
:1001D00006D265D229D33B96A0D0B9969ED0FFD146
:1001E0005ED222D33B9699D09394E9E19E1650F0CB
:1001F000992473957C3308F07727E0E6F0E027D365
:10020000F49625D3FF91EF91EFBEEF901895A8ECEF
:10021000B0E0E6E081E315D0E3950D938A95D9F738
:10022000A2EDB0E080E1EC91EE2321F0EF70E05C14
:1002300008D00C9311968A95B1F7EBE402D0302EDA
:100240000895EEBBE09A0DB30895EF92EFB6BC2C83
:10025000D6B2CD2CDB24DB204D29EFBEEF901895D4
:10026000889401C008940081118122813381001F8C
:10027000111F221F331F0083118322833383F894BD
:1002800083E08583848183958F11848378948A3178
:1002900008F1F48233709285852F8923D9F431FDDA
:1002A000839530FD839527FD839526FD839525FD58
:1002B000839524FD839523FD839522FD839521FD60
:1002C000839520FD839517FD839516FD839515FD78
:1002D000839580FD089514FD839513FD839512FD8C
:1002E000839511FD839510FD839507FD839506FD8C
:1002F000839505FD839504FD839503FD839502FD9C
:10030000839501FD839500FD839580FF0895068305
:10031000178320873187592B08950F930481F01696
:100320002CF405810A95058309F4F4820F91089550
:10033000AEECB0E00D9106830D9107830D9100871F
:100340000D910187089502E003A7A99BF1CF0FEF5C
:1003500004830093CE00ECCFAAECB0E006811D919F
:10036000011707811D91010700851D910107018576
:100370001D91010741F4F8940FE50DBF01E00EBF98
:100380009091C90092CE03A5AA990AC0063071F0D7
:10039000073079F0083069F0AAEDB0E0E89448C180
:1003A0000430D1F79091F600F7D0F6CF0FEFA8996F
:1003B0000483089501891289238934893695279504
:1003C0001795079502271227980112951F7013A7FA
:1003D000F4A6113019F4989B089546C0123019F410
:1003E000999B089541C0133019F49A9B08953CC01D
:1003F000143019F4A09B089537C0153039F40091DA
:10040000EF00CFD09B9B089515E02EC0163061F40D
:100410000091EE00C6D0AA9904C0A19B089516E0F1
:1004200023C00FEF048308951730689429F4A2EDD8
:10043000B0E09C9BE89407C0183041F4E6D1A6EDEB
:10044000B0E09D9BE894CEEDD0E013C0193019F4D4
:100450009E9B089509C01A3019F49F9B089504C00B
:100460001B30E1F704E003A72DD0AEEDB0E0E89437
:10047000DFC006810F1507810F0500850F05018577
:100480000F05E9F0C6F4032F0F70122F12951F709D
:100490002F70AF93BF93DF015196A99BAB991B9728
:1004A0001ED06894BF91AF91A99BAB9901C0C0C009
:1004B000DE01E894BDC0A99BAB9901C0B9C0A99B5E
:1004C000F4820895812F99270091E6001091E700AA
:1004D000080F191F2091E500DF0116961DC0802F1F
:1004E0009927800F800F880F880F880F800F880F43
:1004F000991F880F991F012F000F000F010F000F88
:10050000800F9F1D820F9F1D0091E3001091E4005A
:10051000080F191F2091E2003327000F111F221F1F
:10052000331F882730FD839527FD839526FD83950E
:1005300025FD839524FD839523FD839522FD8395D9
:1005400021FD839520FD839517FD839516FD8395E9
:1005500015FD839580FB31F981E014FD839513FD32
:10056000839512FD839511FD839510FD839507FDFD
:10057000839506FD839505FD839504FD839503FD15
:10058000839502FD839501FD839580FB00F90D9312
:100590001D932D933D930895992301F158D233274C
:1005A00017C00023D9F011272227000F111F000FB9
:1005B000111FC801332758D257D256D255D258D21C
:1005C00053D256D251D254D24FD24ED24DD250D213
:1005D000F89485A796A737A701E004A718958F93ED
:1005E00084A58823E1F09F9385A596A5019785A70B
:1005F00096A787A58F0987A789F4F4A683A58430D9
:1006000019F480E691E002C080E491E0F18A828BE7
:10061000938BF48A8589582BA99BF4829F918F91A3
:100620000895EF92EFB67894B7D0EFBEEF9018959B
:1006300006890023E9F796F40991199129913991D6
:1006400005A316A327A330A701891289238934891A
:1006500086E012D201A312A323A334A30D911D910E
:100660002D913D91058F168F278F30A3068117811D
:100670002085318586E000D2018F128F238F348F41
:10068000AA9B02C0AE3D09F053DEA99BF482A1D122
:100690000AE1078BF08E01E007F9068B08950F93AE
:1006A0001F930689002309F474C000FF11C0018D57
:1006B000000F018F028D001F028F038D001F038F1B
:1006C000048D001F048F10F000A901C001A9602B48
:1006D0000789108D01501F09078B108F09F059C031
:1006E00006890395068B102F1770123011F1133005
:1006F00051F1143091F11530A1F1163009F43CC0DC
:1007000007FF15C005A1058F06A1068F07A1078F5A
:1007100000A500A301A1018F02A1028F03A1038FF5
:1007200004A1048F01E0068B0AE1112730C0F68A8C
:1007300030C0158D112321F00091E800112727C04A
:100740000C5F068B19C0058D048F068D058F078DF4
:10075000068F00A1078FF0A20BC00091E9001127BE
:1007600016C0158D112319F00250068BECCF348E74
:100770000091F40011270BC007FF05C00091EA00AB
:100780001091EB0004C00091F7001091F800078B66
:10079000108F1F910F9108956A1559F1A62EA7FC8D
:1007A000939A959A95989398A6FC939A959A95986A
:1007B0009398A5FC939A959A95989398A4FC939AEC
:1007C000959A95989398A3FC939A959A959893984F
:1007D000A2FC939A959A95989398A1FC939A959ACE
:1007E00095989398A0FC939A959A95989398949A33
:1007F000949808959F7729F09F3778F08827992754
:100800000DC092A99095692308959091EC00E0366F
:1008100011F09091ED00992331F019D1F89481A74E
:1008200092A782A9682B18958F939F9392A9862FE0
:10083000892351F081A592A5009731F0019781A7F6
:1008400092A711F492A969279F918F9108950F9310
:100850001F9313A90689077019F0063068F00FC0BE
:1008600004A5002329F070FD0BC071FF612708C0AB
:10087000772329F07B3321F41095612301C0612B8C
:100880001F910F910895EF92EFB60F930CB1589B03
:1008900008C00F930F710F3109F006150F9119F56C
:1008A0005898AF93BF93A9EFB0E0A70DBF1D0D936C
:1008B000772029F4007E003A10F091F48394739429
:1008C000781478F01F932F93A9EFB0E030D0012B6C
:1008D0002F911F9129F45061929A5798569A01C00E
:1008E0001ED0BF91AF910F91EFBEEF901895EF9290
:1008F000EFB60F9314D0F7CFEF92EFB60F93AF93FD
:10090000BF93A9EFB0E0A70DBF1D0C910CB9739474
:10091000781410F05598569ABF91AF91E4CF772490
:1009200003E0802E0CE90AB9589A929808950FEFC7
:100930001FEF2D91022728E01695079510F4042546
:1009400015252A95C9F77A94A1F708950091F90021
:10095000007E003621F10038A9F15CB8003229F0A0
:10096000003419F0003AA1F00895F8945E9BFECF90
:100970005E9A9298AFE5ADBFA1E0AEBF05FF60CB38
:1009800066270ADFFBB8EFEFF0E02F0133244CC2FB
:10099000E0E6F0E09091FA0097FDF4962BCF22204C
:1009A00079F021D056989CB9A9EFB0E008E0702EFC
:1009B000BEDF0D931D930AE0802E742C559A089586
:1009C0005CB808952220E1F319D0052D02290CB955
:1009D00008956620F1F091E0E03609F09460D6F4D5
:1009E00019D0926017C0A9EFB0E0C3E0D1E09991AF
:1009F000022D0295902B9D9387E045C02A9449F0E3
:100A000003D0ED0128963FC0A3E0B1E0822D82958E
:100A10008695089587E0281630F0F0DF00910301F5
:100A2000086000930301F0DF2394A80FBF1D9D937E
:100A3000EF01699691FD28960991199129913991B3
:100A400081E01AD01D932D933D9384E01CC088272C
:100A5000990F092F1127000F111F801B910B000FF9
:100A6000111F801B910B0895000F111F221F089565
:100A7000800F911F321F0895000F111F221F331F77
:100A80008A95D1F7089509910D938A95E1F7089514
:100E000001E402BB0CE301BB08E0959A0A959598B2
:100E1000E1F7949A9498EFEFF0E02F01CBD0302EC9
:100E2000332011F486990CC960EA44275CE0C0E0E5
:100E3000D1E00FE0EE27FF273197F1F70A95E1F7B0
:100E400003E0E8E007FD939A000F959AEA959598DC
:100E50009398C1F7949A949806E003B90CE10AB903
:100E600059B97AD0F6F7DE010D93015FD0F3053062
:100E7000C0F7E6EEFFE0E00F849135960490E82F8E
:100E8000EA956AD00D93EA95E1F744D0012B49F732
:100E9000DE010D91F7E0E02D09946883E0EFFFE0BB
:100EA00080E160D081E122C03C128AD04FEF5C919A
:100EB0001AC040D056F0DE016D9380E417FF02C0E7
:100EC0006AD001C002C081E411C002EA0DC032D074
:100ED000E6F380E417FF02C064D005C048D0332099
:100EE00011F433946ED0062F088381E0E82F12D0DE
:100EF0000D931D93EE5F929ADE010D915D9BFECFE7
:100F00000CB9EA95D1F75E9BFECF5E9A92984C138E
:100F100077CFA6CFDE010FEF1FEF2D91022728E03C
:100F20001695079510F40D2716272A95C9F78A9567
:100F3000A1F70895ED91FD911D9168940E2F0F7307
:100F400051F4112329F0103831F4F13020F402C0AB
:100F5000FE3008F4E89408955F9BFECF1AB10CB1FF
:100F600011FB089505910D938A95E1F7089573E0BB
:100F70000AD00D901D9071E006D032968250C9F7CC
:100F8000E054F04075E007B700FDFDCFE199FECFDA
:100F900077BFE89508950ED00D9331968A95D9F7CD
:100FA00008950D91E415F50509F00DD031968A9557
:100FB000C1F70895E199FECFEEBBE09A0DB3089515
:100FC0003324032DF201E199FECFE498E598EEBBBE
:080FD0000DBBE29AE19A0895BD
:100FE60003064603044D59675457121E920D4000DE
:0A0FF600FF0047684F53540000004D
:00000001FF
